{
  "abi": [
    {
      "inputs": [
        {
          "internalType": "uint8",
          "name": "_whitelistedAddressMax",
          "type": "uint8"
        }
      ],
      "stateMutability": "nonpayable",
      "type": "constructor"
    },
    {
      "inputs": [],
      "name": "_owner",
      "outputs": [
        {
          "internalType": "address",
          "name": "",
          "type": "address"
        }
      ],
      "stateMutability": "view",
      "type": "function"
    },
    {
      "inputs": [
        {
          "internalType": "address",
          "name": "_toWhitelist",
          "type": "address"
        }
      ],
      "name": "addToWhitelist",
      "outputs": [],
      "stateMutability": "nonpayable",
      "type": "function"
    },
    {
      "inputs": [
        {
          "internalType": "uint256",
          "name": "",
          "type": "uint256"
        }
      ],
      "name": "allWhitelisted",
      "outputs": [
        {
          "internalType": "address",
          "name": "",
          "type": "address"
        }
      ],
      "stateMutability": "view",
      "type": "function"
    },
    {
      "inputs": [],
      "name": "numCurrentlyWhitelisted",
      "outputs": [
        {
          "internalType": "uint8",
          "name": "",
          "type": "uint8"
        }
      ],
      "stateMutability": "view",
      "type": "function"
    },
    {
      "inputs": [
        {
          "internalType": "address",
          "name": "_toRemove",
          "type": "address"
        }
      ],
      "name": "removeFromWhitelist",
      "outputs": [],
      "stateMutability": "nonpayable",
      "type": "function"
    },
    {
      "inputs": [
        {
          "internalType": "address",
          "name": "",
          "type": "address"
        }
      ],
      "name": "whitelisted",
      "outputs": [
        {
          "internalType": "bool",
          "name": "",
          "type": "bool"
        }
      ],
      "stateMutability": "view",
      "type": "function"
    },
    {
      "inputs": [],
      "name": "whitelistedAddressMax",
      "outputs": [
        {
          "internalType": "uint8",
          "name": "",
          "type": "uint8"
        }
      ],
      "stateMutability": "view",
      "type": "function"
    }
  ],
  "bytecode": {
    "object": "0x608060405234801561001057600080fd5b5060405161070438038061070483398101604081905261002f91610060565b600080546001600160a81b0319163360ff60a01b191617600160a01b60ff939093169290920291909117905561008a565b60006020828403121561007257600080fd5b815160ff8116811461008357600080fd5b9392505050565b61066b806100996000396000f3fe608060405234801561001057600080fd5b506004361061007d5760003560e01c8063d936547e1161005b578063d936547e146100ed578063e12e774e14610120578063e43252d714610133578063f169e6071461014657600080fd5b8063849fc2c8146100825780638ab1d681146100ad578063b2bdfa7b146100c2575b600080fd5b60005461009690600160a81b900460ff1681565b60405160ff90911681526020015b60405180910390f35b6100c06100bb366004610583565b61015a565b005b6000546100d5906001600160a01b031681565b6040516001600160a01b0390911681526020016100a4565b6101106100fb366004610583565b60026020526000908152604090205460ff1681565b60405190151581526020016100a4565b6100d561012e3660046105b3565b6103ae565b6100c0610141366004610583565b6103d8565b60005461009690600160a01b900460ff1681565b6000546001600160a01b031633146101b15760405162461bcd60e51b81526020600482015260156024820152742cb7ba9030b932903737ba103a34329037bbb732b960591b60448201526064015b60405180910390fd5b6001600160a01b03811660009081526002602052604090205460ff166102195760405162461bcd60e51b815260206004820152601860248201527f41646472657373206e6f74206f6e2077686974656c697374000000000000000060448201526064016101a8565b6001600160a01b0381166000908152600260205260408120805460ff191690558054600160a81b900460ff16906015610251836105e2565b91906101000a81548160ff021916908360ff16021790555050600060018054806020026020016040519081016040528092919081815260200182805480156102c257602002820191906000526020600020905b81546001600160a01b031681526001909101906020018083116102a4575b5050505050905060005b81518160ff1610156103a957826001600160a01b0316828260ff16815181106102f7576102f76105ff565b60200260200101516001600160a01b0316141561033957818160ff1681518110610323576103236105ff565b6020026020010160006001600160a01b03168152505b600180548060200260200160405190810160405280929190818152602001828054801561038f57602002820191906000526020600020905b81546001600160a01b03168152600190910190602001808311610371575b5050505050915080806103a190610615565b9150506102cc565b505050565b600181815481106103be57600080fd5b6000918252602090912001546001600160a01b0316905081565b6000546001600160a01b0316331461042a5760405162461bcd60e51b81526020600482015260156024820152742cb7ba9030b932903737ba103a34329037bbb732b960591b60448201526064016101a8565b6001600160a01b03811660009081526002602052604090205460ff16156104935760405162461bcd60e51b815260206004820181905260248201527f4164647265737320616c7265616479206f6e207468652077686974656c69737460448201526064016101a8565b60005460ff600160a01b82048116600160a81b90920416106104eb5760405162461bcd60e51b815260206004820152601160248201527015da1a5d195b1a5cdd081a5cc8199d5b1b607a1b60448201526064016101a8565b6001600160a01b0381166000818152600260205260408120805460ff19166001908117909155805480820182559082527fb10e2d527612073b26eecdfd717e6a320cf44b4afac2b0732d9fcbe2b7fa0cf60180546001600160a01b0319169092179091558054600160a81b900460ff1690601561056783610615565b91906101000a81548160ff021916908360ff1602179055505050565b60006020828403121561059557600080fd5b81356001600160a01b03811681146105ac57600080fd5b9392505050565b6000602082840312156105c557600080fd5b5035919050565b634e487b7160e01b600052601160045260246000fd5b600060ff8216806105f5576105f56105cc565b6000190192915050565b634e487b7160e01b600052603260045260246000fd5b600060ff821660ff81141561062c5761062c6105cc565b6001019291505056fea26469706673582212200b39794a9bf1bb3d5555c0d8e8979071eaa1303755724576efb1171583cd668364736f6c634300080a0033",
    "linkReferences": {}
  }
}